{
  "contractName": "Tcr",
  "abi": [
    {
      "constant": true,
      "inputs": [],
      "name": "name",
      "outputs": [
        {
          "name": "",
          "type": "string"
        }
      ],
      "payable": false,
      "stateMutability": "view",
      "type": "function"
    },
    {
      "constant": true,
      "inputs": [],
      "name": "minDeposit",
      "outputs": [
        {
          "name": "",
          "type": "uint256"
        }
      ],
      "payable": false,
      "stateMutability": "view",
      "type": "function"
    },
    {
      "constant": true,
      "inputs": [],
      "name": "applyStageLen",
      "outputs": [
        {
          "name": "",
          "type": "uint256"
        }
      ],
      "payable": false,
      "stateMutability": "view",
      "type": "function"
    },
    {
      "constant": true,
      "inputs": [],
      "name": "pollNonce",
      "outputs": [
        {
          "name": "",
          "type": "uint256"
        }
      ],
      "payable": false,
      "stateMutability": "view",
      "type": "function"
    },
    {
      "constant": true,
      "inputs": [],
      "name": "commitStageLen",
      "outputs": [
        {
          "name": "",
          "type": "uint256"
        }
      ],
      "payable": false,
      "stateMutability": "view",
      "type": "function"
    },
    {
      "constant": true,
      "inputs": [
        {
          "name": "",
          "type": "uint256"
        }
      ],
      "name": "listingNames",
      "outputs": [
        {
          "name": "",
          "type": "string"
        }
      ],
      "payable": false,
      "stateMutability": "view",
      "type": "function"
    },
    {
      "constant": true,
      "inputs": [],
      "name": "token",
      "outputs": [
        {
          "name": "",
          "type": "address"
        }
      ],
      "payable": false,
      "stateMutability": "view",
      "type": "function"
    },
    {
      "inputs": [
        {
          "name": "_name",
          "type": "string"
        },
        {
          "name": "_token",
          "type": "address"
        },
        {
          "name": "_parameters",
          "type": "uint256[]"
        }
      ],
      "payable": false,
      "stateMutability": "nonpayable",
      "type": "constructor"
    },
    {
      "anonymous": false,
      "inputs": [
        {
          "indexed": true,
          "name": "listingHash",
          "type": "bytes32"
        },
        {
          "indexed": false,
          "name": "deposit",
          "type": "uint256"
        },
        {
          "indexed": false,
          "name": "data",
          "type": "string"
        },
        {
          "indexed": true,
          "name": "applicant",
          "type": "address"
        }
      ],
      "name": "_Application",
      "type": "event"
    },
    {
      "anonymous": false,
      "inputs": [
        {
          "indexed": true,
          "name": "listingHash",
          "type": "bytes32"
        },
        {
          "indexed": false,
          "name": "challengeId",
          "type": "uint256"
        },
        {
          "indexed": true,
          "name": "challenger",
          "type": "address"
        }
      ],
      "name": "_Challenge",
      "type": "event"
    },
    {
      "anonymous": false,
      "inputs": [
        {
          "indexed": true,
          "name": "listingHash",
          "type": "bytes32"
        },
        {
          "indexed": false,
          "name": "challengeId",
          "type": "uint256"
        },
        {
          "indexed": true,
          "name": "voter",
          "type": "address"
        }
      ],
      "name": "_Vote",
      "type": "event"
    },
    {
      "anonymous": false,
      "inputs": [
        {
          "indexed": true,
          "name": "listingHash",
          "type": "bytes32"
        },
        {
          "indexed": false,
          "name": "challengeId",
          "type": "uint256"
        },
        {
          "indexed": true,
          "name": "resolver",
          "type": "address"
        }
      ],
      "name": "_ResolveChallenge",
      "type": "event"
    },
    {
      "anonymous": false,
      "inputs": [
        {
          "indexed": true,
          "name": "challengeId",
          "type": "uint256"
        },
        {
          "indexed": false,
          "name": "reward",
          "type": "uint256"
        },
        {
          "indexed": true,
          "name": "voter",
          "type": "address"
        }
      ],
      "name": "_RewardClaimed",
      "type": "event"
    },
    {
      "constant": true,
      "inputs": [
        {
          "name": "_listingHash",
          "type": "bytes32"
        }
      ],
      "name": "isWhitelisted",
      "outputs": [
        {
          "name": "whitelisted",
          "type": "bool"
        }
      ],
      "payable": false,
      "stateMutability": "view",
      "type": "function"
    },
    {
      "constant": true,
      "inputs": [
        {
          "name": "_listingHash",
          "type": "bytes32"
        }
      ],
      "name": "appWasMade",
      "outputs": [
        {
          "name": "exists",
          "type": "bool"
        }
      ],
      "payable": false,
      "stateMutability": "view",
      "type": "function"
    },
    {
      "constant": true,
      "inputs": [],
      "name": "getAllListings",
      "outputs": [
        {
          "name": "",
          "type": "string[]"
        }
      ],
      "payable": false,
      "stateMutability": "view",
      "type": "function"
    },
    {
      "constant": true,
      "inputs": [],
      "name": "getDetails",
      "outputs": [
        {
          "name": "",
          "type": "string"
        },
        {
          "name": "",
          "type": "address"
        },
        {
          "name": "",
          "type": "uint256"
        },
        {
          "name": "",
          "type": "uint256"
        },
        {
          "name": "",
          "type": "uint256"
        }
      ],
      "payable": false,
      "stateMutability": "view",
      "type": "function"
    },
    {
      "constant": true,
      "inputs": [
        {
          "name": "_listingHash",
          "type": "bytes32"
        }
      ],
      "name": "getListingDetails",
      "outputs": [
        {
          "name": "",
          "type": "bool"
        },
        {
          "name": "",
          "type": "address"
        },
        {
          "name": "",
          "type": "uint256"
        },
        {
          "name": "",
          "type": "uint256"
        },
        {
          "name": "",
          "type": "string"
        }
      ],
      "payable": false,
      "stateMutability": "view",
      "type": "function"
    },
    {
      "constant": false,
      "inputs": [
        {
          "name": "_listingHash",
          "type": "bytes32"
        },
        {
          "name": "_amount",
          "type": "uint256"
        },
        {
          "name": "_data",
          "type": "string"
        }
      ],
      "name": "propose",
      "outputs": [],
      "payable": false,
      "stateMutability": "nonpayable",
      "type": "function"
    },
    {
      "constant": false,
      "inputs": [
        {
          "name": "_listingHash",
          "type": "bytes32"
        },
        {
          "name": "_amount",
          "type": "uint256"
        }
      ],
      "name": "challenge",
      "outputs": [
        {
          "name": "challengeId",
          "type": "uint256"
        }
      ],
      "payable": false,
      "stateMutability": "nonpayable",
      "type": "function"
    },
    {
      "constant": false,
      "inputs": [
        {
          "name": "_listingHash",
          "type": "bytes32"
        },
        {
          "name": "_amount",
          "type": "uint256"
        },
        {
          "name": "_choice",
          "type": "bool"
        }
      ],
      "name": "vote",
      "outputs": [],
      "payable": false,
      "stateMutability": "nonpayable",
      "type": "function"
    },
    {
      "constant": true,
      "inputs": [
        {
          "name": "_listingHash",
          "type": "bytes32"
        }
      ],
      "name": "canBeWhitelisted",
      "outputs": [
        {
          "name": "",
          "type": "bool"
        }
      ],
      "payable": false,
      "stateMutability": "view",
      "type": "function"
    },
    {
      "constant": false,
      "inputs": [
        {
          "name": "_listingHash",
          "type": "bytes32"
        }
      ],
      "name": "updateStatus",
      "outputs": [],
      "payable": false,
      "stateMutability": "nonpayable",
      "type": "function"
    },
    {
      "constant": false,
      "inputs": [
        {
          "name": "challengeId",
          "type": "uint256"
        }
      ],
      "name": "claimRewards",
      "outputs": [],
      "payable": false,
      "stateMutability": "nonpayable",
      "type": "function"
    }
  ],
  "bytecode": "0x60806040523480156200001157600080fd5b50604051620035963803806200359683398101806040526200003791908101906200032f565b600073ffffffffffffffffffffffffffffffffffffffff168273ffffffffffffffffffffffffffffffffffffffff161415620000aa576040517f08c379a0000000000000000000000000000000000000000000000000000000008152600401620000a1906200041f565b60405180910390fd5b81600460006101000a81548173ffffffffffffffffffffffffffffffffffffffff021916908373ffffffffffffffffffffffffffffffffffffffff16021790555082600590805190602001906200010392919062000169565b50806000815181106200011257fe5b6020026020010151600681905550806001815181106200012e57fe5b6020026020010151600781905550806002815181106200014a57fe5b602002602001015160088190555060006009819055505050506200057e565b828054600181600116156101000203166002900490600052602060002090601f016020900481019282601f10620001ac57805160ff1916838001178555620001dd565b82800160010185558215620001dd579182015b82811115620001dc578251825591602001919060010190620001bf565b5b509050620001ec9190620001f0565b5090565b6200021591905b8082111562000211576000816000905550600101620001f7565b5090565b90565b60008151905062000229816200054a565b92915050565b600082601f8301126200024157600080fd5b81516200025862000252826200046f565b62000441565b915081818352602084019350602081019050838560208402820111156200027e57600080fd5b60005b83811015620002b2578162000297888262000318565b84526020840193506020830192505060018101905062000281565b5050505092915050565b600082601f830112620002ce57600080fd5b8151620002e5620002df8262000498565b62000441565b915080825260208301602083018583830111156200030257600080fd5b6200030f83828462000514565b50505092915050565b600081519050620003298162000564565b92915050565b6000806000606084860312156200034557600080fd5b600084015167ffffffffffffffff8111156200036057600080fd5b6200036e86828701620002bc565b9350506020620003818682870162000218565b925050604084015167ffffffffffffffff8111156200039f57600080fd5b620003ad868287016200022f565b9150509250925092565b6000620003c6602683620004c5565b91507f546f6b656e20616464726573732073686f756c64206e6f74206265203020616460008301527f64726573732e00000000000000000000000000000000000000000000000000006020830152604082019050919050565b600060208201905081810360008301526200043a81620003b7565b9050919050565b6000604051905081810181811067ffffffffffffffff821117156200046557600080fd5b8060405250919050565b600067ffffffffffffffff8211156200048757600080fd5b602082029050602081019050919050565b600067ffffffffffffffff821115620004b057600080fd5b601f19601f8301169050602081019050919050565b600082825260208201905092915050565b6000620004e382620004ea565b9050919050565b600073ffffffffffffffffffffffffffffffffffffffff82169050919050565b6000819050919050565b60005b838110156200053457808201518184015260208101905062000517565b8381111562000544576000848401525b50505050565b6200055581620004d6565b81146200056157600080fd5b50565b6200056f816200050a565b81146200057b57600080fd5b50565b613008806200058e6000396000f3fe608060405234801561001057600080fd5b50600436106101165760003560e01c80638a59eb56116100a2578063ae73ccec11610071578063ae73ccec146102e5578063d7ab802d14610303578063e2083c1814610333578063fbbf93a014610363578063fc0c546a1461038557610116565b80638a59eb561461025d5780638cf8151f1461027957806397508f36146102a9578063a63dd198146102c757610116565b80632c729fd1116100e95780632c729fd1146101a157806341b3d185146101bd578063691a38ab146101db5780637b3565611461020b5780637f0733601461023f57610116565b806301a5e3fe1461011b57806306fdde031461014b5780630962ef7914610169578063212424c314610185575b600080fd5b6101356004803603610130919081019061227a565b6103a3565b6040516101429190612ac3565b60405180910390f35b6101536103d0565b6040516101609190612b53565b60405180910390f35b610183600480360361017e919081019061239a565b61046e565b005b61019f600480360361019a919081019061232e565b6107c5565b005b6101bb60048036036101b691908101906122df565b610afd565b005b6101c5610e75565b6040516101d29190612dcf565b60405180910390f35b6101f560048036036101f0919081019061227a565b610e7b565b6040516102029190612ac3565b60405180910390f35b6102256004803603610220919081019061227a565b610f2a565b604051610236959493929190612ade565b60405180910390f35b610247611119565b6040516102549190612dcf565b60405180910390f35b6102776004803603610272919081019061227a565b61111f565b005b610293600480360361028e919081019061227a565b61116d565b6040516102a09190612ac3565b60405180910390f35b6102b161118f565b6040516102be9190612dcf565b60405180910390f35b6102cf611195565b6040516102dc9190612dcf565b60405180910390f35b6102ed61119b565b6040516102fa9190612aa1565b60405180910390f35b61031d6004803603610318919081019061239a565b6112c9565b60405161032a9190612b53565b60405180910390f35b61034d600480360361034891908101906122a3565b611382565b60405161035a9190612dcf565b60405180910390f35b61036b6117cf565b60405161037c959493929190612b75565b60405180910390f35b61038d6118b5565b60405161039a9190612b38565b60405180910390f35b60006001600083815260200190815260200160002060010160009054906101000a900460ff169050919050565b60058054600181600116156101000203166002900480601f0160208091040260200160405190810160405280929190818152602001828054600181600116156101000203166002900480156104665780601f1061043b57610100808354040283529160200191610466565b820191906000526020600020905b81548152906001019060200180831161044957829003601f168201915b505050505081565b6001151560008083815260200190815260200160002060000160149054906101000a900460ff161515146104d7576040517f08c379a00000000000000000000000000000000000000000000000000000000081526004016104ce90612d4f565b60405180910390fd5b600060036000838152602001908152602001600020905060008160040160003373ffffffffffffffffffffffffffffffffffffffff1673ffffffffffffffffffffffffffffffffffffffff1681526020019081526020016000209050600015158160020160009054906101000a900460ff1615151461058b576040517f08c379a000000000000000000000000000000000000000000000000000000000815260040161058290612bef565b60405180910390fd5b8160030160009054906101000a900460ff1680156105b757508060000160009054906101000a900460ff165b806105ec57508160030160009054906101000a900460ff161580156105eb57508060000160009054906101000a900460ff16155b5b156107a3576000610646826001015461063860008088815260200190815260200160002060030154600080898152602001908152602001600020600201546118db90919063ffffffff16565b61190190919063ffffffff16565b9050600061066182846001015461193b90919063ffffffff16565b9050600460009054906101000a900473ffffffffffffffffffffffffffffffffffffffff1673ffffffffffffffffffffffffffffffffffffffff1663a9059cbb33836040518363ffffffff1660e01b81526004016106c0929190612a18565b602060405180830381600087803b1580156106da57600080fd5b505af11580156106ee573d6000803e3d6000fd5b505050506040513d601f19601f820116820180604052506107129190810190612251565b610751576040517f08c379a000000000000000000000000000000000000000000000000000000000815260040161074890612c6f565b60405180910390fd5b3373ffffffffffffffffffffffffffffffffffffffff16857f6f4c982acc31b0af2cf1dc1556f21c0325d893782d65e83c68a5534a33f59957836040516107989190612dcf565b60405180910390a350505b60018160020160006101000a81548160ff021916908315150217905550505050565b6107ce846103a3565b1561080e576040517f08c379a000000000000000000000000000000000000000000000000000000000815260040161080590612daf565b60405180910390fd5b6108178461116d565b15610857576040517f08c379a000000000000000000000000000000000000000000000000000000000815260040161084e90612bcf565b60405180910390fd5b60065483101561089c576040517f08c379a000000000000000000000000000000000000000000000000000000000815260040161089390612caf565b60405180910390fd5b6000600160008681526020019081526020016000209050338160010160016101000a81548173ffffffffffffffffffffffffffffffffffffffff021916908373ffffffffffffffffffffffffffffffffffffffff1602179055508282826004019190610909929190611fea565b50600281600401908060018154018082558091505090600182039060005260206000200160009091929091909150908054600181600116156101000203166002900461095692919061206a565b5050600160028054905003816005018190555061097e6007544261193b90919063ffffffff16565b8160000181905550838160020181905550600460009054906101000a900473ffffffffffffffffffffffffffffffffffffffff1673ffffffffffffffffffffffffffffffffffffffff166323b872dd8260010160019054906101000a900473ffffffffffffffffffffffffffffffffffffffff1630876040518463ffffffff1660e01b8152600401610a1293929190612a41565b602060405180830381600087803b158015610a2c57600080fd5b505af1158015610a40573d6000803e3d6000fd5b505050506040513d601f19601f82011682018060405250610a649190810190612251565b610aa3576040517f08c379a0000000000000000000000000000000000000000000000000000000008152600401610a9a90612d8f565b60405180910390fd5b3373ffffffffffffffffffffffffffffffffffffffff16857fe1cdd401be51ef2c8159945a96274b69ba482f2a5e2131700beeda434fd6d58f868686604051610aee93929190612dea565b60405180910390a35050505050565b6000600160008581526020019081526020016000209050610b1d8461116d565b80610b3657508060010160009054906101000a900460ff165b610b75576040517f08c379a0000000000000000000000000000000000000000000000000000000008152600401610b6c90612ccf565b60405180910390fd5b60008160030154118015610bad57506000808260030154815260200190815260200160002060000160149054906101000a900460ff16155b610bec576040517f08c379a0000000000000000000000000000000000000000000000000000000008152600401610be390612c2f565b60405180910390fd5b60006003600083600301548152602001908152602001600020905042816002015411610c4d576040517f08c379a0000000000000000000000000000000000000000000000000000000008152600401610c4490612cef565b60405180910390fd5b600460009054906101000a900473ffffffffffffffffffffffffffffffffffffffff1673ffffffffffffffffffffffffffffffffffffffff166323b872dd3330876040518463ffffffff1660e01b8152600401610cac939291906129e1565b602060405180830381600087803b158015610cc657600080fd5b505af1158015610cda573d6000803e3d6000fd5b505050506040513d601f19601f82011682018060405250610cfe9190810190612251565b610d3d576040517f08c379a0000000000000000000000000000000000000000000000000000000008152600401610d3490612d8f565b60405180910390fd5b8215610d5a57838160000160008282540192505081905550610d6d565b8381600101600082825401925050819055505b60405180606001604052808415158152602001858152602001600015158152508160040160003373ffffffffffffffffffffffffffffffffffffffff1673ffffffffffffffffffffffffffffffffffffffff16815260200190815260200160002060008201518160000160006101000a81548160ff0219169083151502179055506020820151816001015560408201518160020160006101000a81548160ff0219169083151502179055509050503373ffffffffffffffffffffffffffffffffffffffff16857f7a1c5ce18abad3692f6bdf85262d38c3ad4ee5cabf88020e5a0e4d6b841d83768460030154604051610e669190612dcf565b60405180910390a35050505050565b60065481565b60008060016000848152602001908152602001600020600301549050610ea08361116d565b8015610ec15750426001600085815260200190815260200160002060000154105b8015610ed35750610ed1836103a3565b155b8015610f1057506000811480610f0f57506001151560008083815260200190815260200160002060000160149054906101000a900460ff161515145b5b15610f1f576001915050610f25565b60009150505b919050565b6000806000806060610f3a6120f1565b600160008881526020019081526020016000206040518060e0016040529081600082015481526020016001820160009054906101000a900460ff161515151581526020016001820160019054906101000a900473ffffffffffffffffffffffffffffffffffffffff1673ffffffffffffffffffffffffffffffffffffffff1673ffffffffffffffffffffffffffffffffffffffff1681526020016002820154815260200160038201548152602001600482018054600181600116156101000203166002900480601f0160208091040260200160405190810160405280929190818152602001828054600181600116156101000203166002900480156110805780601f1061105557610100808354040283529160200191611080565b820191906000526020600020905b81548152906001019060200180831161106357829003601f168201915b50505050508152602001600582015481525050905061109e8761116d565b806110aa575080602001515b6110e9576040517f08c379a00000000000000000000000000000000000000000000000000000000081526004016110e090612ccf565b60405180910390fd5b80602001518160400151826060015183608001518460a00151809050955095509550955095505091939590929450565b60075481565b61112881610e7b565b1561116057600180600083815260200190815260200160002060010160006101000a81548160ff02191690831515021790555061116a565b6111698161195a565b5b50565b6000806001600084815260200190815260200160002060000154119050919050565b60095481565b60085481565b6060806002805490506040519080825280602002602001820160405280156111d757816020015b60608152602001906001900390816111c25790505b50905060008090505b6002805490508110156112c157600281815481106111fa57fe5b906000526020600020018054600181600116156101000203166002900480601f0160208091040260200160405190810160405280929190818152602001828054600181600116156101000203166002900480156112985780601f1061126d57610100808354040283529160200191611298565b820191906000526020600020905b81548152906001019060200180831161127b57829003601f168201915b50505050508282815181106112a957fe5b602002602001018190525080806001019150506111e0565b508091505090565b600281815481106112d657fe5b906000526020600020016000915090508054600181600116156101000203166002900480601f01602080910402602001604051908101604052809291908181526020018280546001816001161561010002031660029004801561137a5780601f1061134f5761010080835404028352916020019161137a565b820191906000526020600020905b81548152906001019060200180831161135d57829003601f168201915b505050505081565b6000806001600085815260200190815260200160002090506113a38461116d565b806113bc57508060010160009054906101000a900460ff165b6113fb576040517f08c379a00000000000000000000000000000000000000000000000000000000081526004016113f290612ccf565b60405180910390fd5b60008160030154148061143157506000808260030154815260200190815260200160002060000160149054906101000a900460ff165b611470576040517f08c379a000000000000000000000000000000000000000000000000000000000815260040161146790612d6f565b60405180910390fd5b428160000154116114b6576040517f08c379a00000000000000000000000000000000000000000000000000000000081526004016114ad90612c8f565b60405180910390fd5b80600201548310156114fd576040517f08c379a00000000000000000000000000000000000000000000000000000000081526004016114f490612d2f565b60405180910390fd5b6001600954016009819055506040518060a001604052803373ffffffffffffffffffffffffffffffffffffffff168152602001600015158152602001848152602001600081526020016000815250600080600954815260200190815260200160002060008201518160000160006101000a81548173ffffffffffffffffffffffffffffffffffffffff021916908373ffffffffffffffffffffffffffffffffffffffff16021790555060208201518160000160146101000a81548160ff021916908315150217905550604082015181600101556060820151816002015560808201518160030155905050604051806080016040528060008152602001600081526020016116156008544261193b90919063ffffffff16565b81526020016000151581525060036000600954815260200190815260200160002060008201518160000155602082015181600101556040820151816002015560608201518160030160006101000a81548160ff0219169083151502179055509050506009548160030181905550600460009054906101000a900473ffffffffffffffffffffffffffffffffffffffff1673ffffffffffffffffffffffffffffffffffffffff166323b872dd3330866040518463ffffffff1660e01b81526004016116e1939291906129e1565b602060405180830381600087803b1580156116fb57600080fd5b505af115801561170f573d6000803e3d6000fd5b505050506040513d601f19601f820116820180604052506117339190810190612251565b611772576040517f08c379a000000000000000000000000000000000000000000000000000000000815260040161176990612d8f565b60405180910390fd5b3373ffffffffffffffffffffffffffffffffffffffff16847fc911f55bb4170a166467bde15c8799c1d2bb96a79f6bd9bc5cd3a4f05f768f6f6009546040516117bb9190612dcf565b60405180910390a360095491505092915050565b6060600080600080606060058054600181600116156101000203166002900480601f01602080910402602001604051908101604052809291908181526020018280546001816001161561010002031660029004801561186f5780601f106118445761010080835404028352916020019161186f565b820191906000526020600020905b81548152906001019060200180831161185257829003601f168201915b5050505050905080600460009054906101000a900473ffffffffffffffffffffffffffffffffffffffff1660065460075460085495509550955095509550509091929394565b600460009054906101000a900473ffffffffffffffffffffffffffffffffffffffff1681565b60008082116118e957600080fd5b60008284816118f457fe5b0490508091505092915050565b6000808314156119145760009050611935565b600082840290508284828161192557fe5b041461193057600080fd5b809150505b92915050565b60008082840190508381101561195057600080fd5b8091505092915050565b6119626120f1565b600160008381526020019081526020016000206040518060e0016040529081600082015481526020016001820160009054906101000a900460ff161515151581526020016001820160019054906101000a900473ffffffffffffffffffffffffffffffffffffffff1673ffffffffffffffffffffffffffffffffffffffff1673ffffffffffffffffffffffffffffffffffffffff1681526020016002820154815260200160038201548152602001600482018054600181600116156101000203166002900480601f016020809104026020016040519081016040528092919081815260200182805460018160011615610100020316600290048015611aa85780601f10611a7d57610100808354040283529160200191611aa8565b820191906000526020600020905b815481529060010190602001808311611a8b57829003601f168201915b50505050508152602001600582015481525050905060008160800151118015611af557506000808260800151815260200190815260200160002060000160149054906101000a900460ff16155b611b34576040517f08c379a0000000000000000000000000000000000000000000000000000000008152600401611b2b90612c2f565b60405180910390fd5b6000816080015190506000611b4882611eca565b9050600160008084815260200190815260200160002060000160146101000a81548160ff021916908315150217905550600080600084815260200190815260200160002060000160009054906101000a900473ffffffffffffffffffffffffffffffffffffffff1690508115611c62576003600084815260200190815260200160002060000154600080858152602001908152602001600020600301819055506003600084815260200190815260200160002060010154600080858152602001908152602001600020600101540160008085815260200190815260200160002060020181905550600180600087815260200190815260200160002060010160006101000a81548160ff021916908315150217905550611e74565b600460009054906101000a900473ffffffffffffffffffffffffffffffffffffffff1673ffffffffffffffffffffffffffffffffffffffff1663a9059cbb82600080878152602001908152602001600020600101546040518363ffffffff1660e01b8152600401611cd4929190612a78565b602060405180830381600087803b158015611cee57600080fd5b505af1158015611d02573d6000803e3d6000fd5b505050506040513d601f19601f82011682018060405250611d269190810190612251565b611d65576040517f08c379a0000000000000000000000000000000000000000000000000000000008152600401611d5c90612d0f565b60405180910390fd5b600360008481526020019081526020016000206001015460008085815260200190815260200160002060030181905550600360008481526020019081526020016000206000015484606001510160008085815260200190815260200160002060020181905550600160008681526020019081526020016000206000808201600090556001820160006101000a81549060ff02191690556001820160016101000a81549073ffffffffffffffffffffffffffffffffffffffff021916905560028201600090556003820160009055600482016000611e429190612146565b6005820160009055505060028460c0015181548110611e5d57fe5b906000526020600020016000611e739190612146565b5b3373ffffffffffffffffffffffffffffffffffffffff16857f779e2848f275ef7b62be066e59dc34b2b8d79758079849859de844a3d9b9fb0d85604051611ebb9190612dcf565b60405180910390a35050505050565b600080600360008481526020019081526020016000206002015411611f24576040517f08c379a0000000000000000000000000000000000000000000000000000000008152600401611f1b90612c0f565b60405180910390fd5b600060036000848152602001908152602001600020905042816002015410611f81576040517f08c379a0000000000000000000000000000000000000000000000000000000008152600401611f7890612c4f565b60405180910390fd5b8060010154816000015410611fb25760018160030160006101000a81548160ff021916908315150217905550611fd0565b60008160030160006101000a81548160ff0219169083151502179055505b8060030160009054906101000a900460ff16915050919050565b828054600181600116156101000203166002900490600052602060002090601f016020900481019282601f1061202b57803560ff1916838001178555612059565b82800160010185558215612059579182015b8281111561205857823582559160200191906001019061203d565b5b509050612066919061218e565b5090565b828054600181600116156101000203166002900490600052602060002090601f016020900481019282601f106120a357805485556120e0565b828001600101855582156120e057600052602060002091601f016020900482015b828111156120df5782548255916001019190600101906120c4565b5b5090506120ed919061218e565b5090565b6040518060e0016040528060008152602001600015158152602001600073ffffffffffffffffffffffffffffffffffffffff168152602001600081526020016000815260200160608152602001600081525090565b50805460018160011615610100020316600290046000825580601f1061216c575061218b565b601f01602090049060005260206000209081019061218a919061218e565b5b50565b6121b091905b808211156121ac576000816000905550600101612194565b5090565b90565b6000813590506121c281612f89565b92915050565b6000815190506121d781612f89565b92915050565b6000813590506121ec81612fa0565b92915050565b60008083601f84011261220457600080fd5b8235905067ffffffffffffffff81111561221d57600080fd5b60208301915083600182028301111561223557600080fd5b9250929050565b60008135905061224b81612fb7565b92915050565b60006020828403121561226357600080fd5b6000612271848285016121c8565b91505092915050565b60006020828403121561228c57600080fd5b600061229a848285016121dd565b91505092915050565b600080604083850312156122b657600080fd5b60006122c4858286016121dd565b92505060206122d58582860161223c565b9150509250929050565b6000806000606084860312156122f457600080fd5b6000612302868287016121dd565b93505060206123138682870161223c565b9250506040612324868287016121b3565b9150509250925092565b6000806000806060858703121561234457600080fd5b6000612352878288016121dd565b94505060206123638782880161223c565b935050604085013567ffffffffffffffff81111561238057600080fd5b61238c878288016121f2565b925092505092959194509250565b6000602082840312156123ac57600080fd5b60006123ba8482850161223c565b91505092915050565b60006123cf83836124ee565b905092915050565b6123e081612edc565b82525050565b6123ef81612e8a565b82525050565b600061240082612e29565b61240a8185612e57565b93508360208202850161241c85612e1c565b8060005b85811015612458578484038952815161243985826123c3565b945061244483612e4a565b925060208a01995050600181019050612420565b50829750879550505050505092915050565b61247381612e9c565b82525050565b61248281612eee565b82525050565b60006124948385612e79565b93506124a1838584612f36565b6124aa83612f78565b840190509392505050565b60006124c082612e3f565b6124ca8185612e79565b93506124da818560208601612f45565b6124e381612f78565b840191505092915050565b60006124f982612e34565b6125038185612e68565b9350612513818560208601612f45565b61251c81612f78565b840191505092915050565b600061253282612e34565b61253c8185612e79565b935061254c818560208601612f45565b61255581612f78565b840191505092915050565b600061256d602283612e79565b91507f4c697374696e6720697320616c726561647920696e206170706c79207374616760008301527f652e0000000000000000000000000000000000000000000000000000000000006020830152604082019050919050565b60006125d3601f83612e79565b91507f566f74652072657761726420697320616c726561647920636c61696d65642e006000830152602082019050919050565b6000612613601483612e79565b91507f506f6c6c20646f6573206e6f742065786973742e0000000000000000000000006000830152602082019050919050565b6000612653601a83612e79565b91507f4c697374696e67206973206e6f74206368616c6c656e6765642e0000000000006000830152602082019050919050565b6000612693601883612e79565b91507f436f6d6d697420706572696f64206973206163746976652e00000000000000006000830152602082019050919050565b60006126d3601e83612e79565b91507f566f74696e6720726577617264207472616e73666572206661696c65642e00006000830152602082019050919050565b6000612713601783612e79565b91507f4170706c7920737461676520686173207061737365642e0000000000000000006000830152602082019050919050565b6000612753602183612e79565b91507f4e6f7420656e6f756768207374616b6520666f72206170706c69636174696f6e60008301527f2e000000000000000000000000000000000000000000000000000000000000006020830152604082019050919050565b60006127b9601783612e79565b91507f4c697374696e6720646f6573206e6f742065786973742e0000000000000000006000830152602082019050919050565b60006127f9601983612e79565b91507f436f6d6d697420706572696f6420686173207061737365642e000000000000006000830152602082019050919050565b6000612839601e83612e79565b91507f4368616c6c656e6765207374616b652072657475726e206661696c65642e00006000830152602082019050919050565b6000612879602683612e79565b91507f4e6f7420656e6f756768207374616b652070617373656420666f72206368616c60008301527f6c656e67652e00000000000000000000000000000000000000000000000000006020830152604082019050919050565b60006128df601a83612e79565b91507f4368616c6c656e6765206973206e6f74207265736f6c7665642e0000000000006000830152602082019050919050565b600061291f601e83612e79565b91507f4c697374696e6720697320616c7265616479206368616c6c656e6765642e00006000830152602082019050919050565b600061295f601683612e79565b91507f546f6b656e207472616e73666572206661696c65642e000000000000000000006000830152602082019050919050565b600061299f601f83612e79565b91507f4c697374696e6720697320616c72656164792077686974656c69737465642e006000830152602082019050919050565b6129db81612ed2565b82525050565b60006060820190506129f660008301866123d7565b612a0360208301856123e6565b612a1060408301846129d2565b949350505050565b6000604082019050612a2d60008301856123d7565b612a3a60208301846129d2565b9392505050565b6000606082019050612a5660008301866123e6565b612a6360208301856123e6565b612a7060408301846129d2565b949350505050565b6000604082019050612a8d60008301856123e6565b612a9a60208301846129d2565b9392505050565b60006020820190508181036000830152612abb81846123f5565b905092915050565b6000602082019050612ad8600083018461246a565b92915050565b600060a082019050612af3600083018861246a565b612b0060208301876123e6565b612b0d60408301866129d2565b612b1a60608301856129d2565b8181036080830152612b2c81846124b5565b90509695505050505050565b6000602082019050612b4d6000830184612479565b92915050565b60006020820190508181036000830152612b6d8184612527565b905092915050565b600060a0820190508181036000830152612b8f81886124b5565b9050612b9e60208301876123e6565b612bab60408301866129d2565b612bb860608301856129d2565b612bc560808301846129d2565b9695505050505050565b60006020820190508181036000830152612be881612560565b9050919050565b60006020820190508181036000830152612c08816125c6565b9050919050565b60006020820190508181036000830152612c2881612606565b9050919050565b60006020820190508181036000830152612c4881612646565b9050919050565b60006020820190508181036000830152612c6881612686565b9050919050565b60006020820190508181036000830152612c88816126c6565b9050919050565b60006020820190508181036000830152612ca881612706565b9050919050565b60006020820190508181036000830152612cc881612746565b9050919050565b60006020820190508181036000830152612ce8816127ac565b9050919050565b60006020820190508181036000830152612d08816127ec565b9050919050565b60006020820190508181036000830152612d288161282c565b9050919050565b60006020820190508181036000830152612d488161286c565b9050919050565b60006020820190508181036000830152612d68816128d2565b9050919050565b60006020820190508181036000830152612d8881612912565b9050919050565b60006020820190508181036000830152612da881612952565b9050919050565b60006020820190508181036000830152612dc881612992565b9050919050565b6000602082019050612de460008301846129d2565b92915050565b6000604082019050612dff60008301866129d2565b8181036020830152612e12818486612488565b9050949350505050565b6000602082019050919050565b600081519050919050565b600081519050919050565b600081519050919050565b6000602082019050919050565b600082825260208201905092915050565b600082825260208201905092915050565b600082825260208201905092915050565b6000612e9582612eb2565b9050919050565b60008115159050919050565b6000819050919050565b600073ffffffffffffffffffffffffffffffffffffffff82169050919050565b6000819050919050565b6000612ee782612f12565b9050919050565b6000612ef982612f00565b9050919050565b6000612f0b82612eb2565b9050919050565b6000612f1d82612f24565b9050919050565b6000612f2f82612eb2565b9050919050565b82818337600083830152505050565b60005b83811015612f63578082015181840152602081019050612f48565b83811115612f72576000848401525b50505050565b6000601f19601f8301169050919050565b612f9281612e9c565b8114612f9d57600080fd5b50565b612fa981612ea8565b8114612fb457600080fd5b50565b612fc081612ed2565b8114612fcb57600080fd5b5056fea265627a7a72305820bff312b58c6e78adf6908a91f46298ae5241be256be10ce2b102d725be2bbdba6c6578706572696d656e74616cf50037",
  "source": "// Most of the code in this contract is derived from the generic TCR implementation from Mike Goldin and (the adChain) team\n// This contract strips out most of the details and only keeps the basic TCR functionality (apply/propose, challenge, vote, resolve)\n// Consider this to be the \"hello world\" for TCR implementation\n// For real world usage, please refer to the generic TCR implementation\n// https://github.com/skmgoldin/tcr\n\npragma solidity ^0.5.8;\npragma experimental ABIEncoderV2;\n\nimport \"../node_modules/openzeppelin-solidity/contracts/token/ERC20/ERC20.sol\";\nimport \"../node_modules/openzeppelin-solidity/contracts/math/SafeMath.sol\";\n\ncontract Tcr {\n\n    using SafeMath for uint;\n\n    struct Listing {\n        uint applicationExpiry; // Expiration date of apply stage\n        bool whitelisted;       // Indicates registry status\n        address owner;          // Owner of Listing\n        uint deposit;           // Number of tokens in the listing\n        uint challengeId;       // the challenge id of the current challenge\n        string data;            // name of listing (for UI)\n        uint arrIndex;          // arrayIndex of listing in listingNames array (for deletion)\n    }\n\n    // instead of using the elegant PLCR voting, we are using just a list because this is *simple-TCR*\n    struct Vote {\n        bool value;\n        uint stake;\n        bool claimed;\n    }\n\n    struct Poll {\n        uint votesFor;\n        uint votesAgainst;\n        uint commitEndDate;\n        bool passed;\n        mapping(address => Vote) votes; // revealed by default; no partial locking\n    }\n\n    struct Challenge {\n        address challenger;     // Owner of Challenge\n        bool resolved;          // Indication of if challenge is resolved\n        uint stake;             // Number of tokens at stake for either party during challenge\n        uint rewardPool;        // number of tokens from losing side - winning reward\n        uint totalTokens;       // number of tokens from winning side - to be returned\n    }\n\n    // Maps challengeIDs to associated challenge data\n    mapping(uint => Challenge) private challenges;\n\n    // Maps listingHashes to associated listingHash data\n    mapping(bytes32 => Listing) private listings;\n    string[] public listingNames;\n\n    // Maps polls to associated challenge\n    mapping(uint => Poll) private polls;\n\n    // Global Variables\n    ERC20 public token;\n    string public name;\n    uint public minDeposit;\n    uint public applyStageLen;\n    uint public commitStageLen;\n\n    uint constant private INITIAL_POLL_NONCE = 0;\n    uint public pollNonce;\n\n    // Events\n    event _Application(bytes32 indexed listingHash, uint deposit, string data, address indexed applicant);\n    event _Challenge(bytes32 indexed listingHash, uint challengeId, address indexed challenger);\n    event _Vote(bytes32 indexed listingHash, uint challengeId, address indexed voter);\n    event _ResolveChallenge(bytes32 indexed listingHash, uint challengeId, address indexed resolver);\n    event _RewardClaimed(uint indexed challengeId, uint reward, address indexed voter);\n\n    // using the constructor to initialize the TCR parameters\n    // again, to keep it simple, skipping the Parameterizer and ParameterizerFactory\n    constructor(\n        string memory _name,\n        address _token,\n        uint[] memory _parameters\n    ) public {\n        require(_token != address(0), \"Token address should not be 0 address.\");\n\n        token = ERC20(_token);\n        name = _name;\n\n        // minimum deposit for listing to be whitelisted\n        minDeposit = _parameters[0];\n\n        // period over which applicants wait to be whitelisted\n        applyStageLen = _parameters[1];\n\n        // length of commit period for voting\n        commitStageLen = _parameters[2];\n\n        // Initialize the poll nonce\n        pollNonce = INITIAL_POLL_NONCE;\n    }\n\n    // returns whether a listing is already whitelisted\n    function isWhitelisted(bytes32 _listingHash) public view returns (bool whitelisted) {\n        return listings[_listingHash].whitelisted;\n    }\n\n    // returns if a listing is in apply stage\n    function appWasMade(bytes32 _listingHash) public view returns (bool exists) {\n        return listings[_listingHash].applicationExpiry > 0;\n    }\n\n    // get all listing names (for UI)\n    // not to be used in a production use case\n    function getAllListings() public view returns (string[] memory) {\n        string[] memory listingArr = new string[](listingNames.length);\n        for (uint256 i = 0; i < listingNames.length; i++) {\n            listingArr[i] = listingNames[i];\n        }\n        return listingArr;\n    }\n\n    // get details of this registry (for UI)\n    function getDetails() public view returns (string memory, address, uint, uint, uint) {\n        string memory _name = name;\n        return (_name, address(token), minDeposit, applyStageLen, commitStageLen);\n    }\n\n    // get details of a listing (for UI)\n    function getListingDetails(bytes32 _listingHash) public view returns (bool, address, uint, uint, string memory) {\n        Listing memory listingIns = listings[_listingHash];\n\n        // Listing must be in apply stage or already on the whitelist\n        require(appWasMade(_listingHash) || listingIns.whitelisted, \"Listing does not exist.\");\n\n        return (listingIns.whitelisted, listingIns.owner, listingIns.deposit, listingIns.challengeId, listingIns.data);\n    }\n\n    // proposes a listing to be whitelisted\n    function propose(bytes32 _listingHash, uint _amount, string calldata _data) external {\n        require(!isWhitelisted(_listingHash), \"Listing is already whitelisted.\");\n        require(!appWasMade(_listingHash), \"Listing is already in apply stage.\");\n        require(_amount >= minDeposit, \"Not enough stake for application.\");\n\n        // Sets owner\n        Listing storage listing = listings[_listingHash];\n        listing.owner = msg.sender;\n        listing.data = _data;\n        listingNames.push(listing.data);\n        listing.arrIndex = listingNames.length - 1;\n\n        // Sets apply stage end time\n        // now or block.timestamp is safe here (can live with ~15 sec approximation)\n        /* solium-disable-next-line security/no-block-members */\n        listing.applicationExpiry = now.add(applyStageLen);\n        listing.deposit = _amount;\n\n        // Transfer tokens from user\n        require(token.transferFrom(listing.owner, address(this), _amount), \"Token transfer failed.\");\n\n        emit _Application(_listingHash, _amount, _data, msg.sender);\n    }\n\n    // challenges a listing from being whitelisted\n    function challenge(bytes32 _listingHash, uint _amount)\n        external returns (uint challengeId) {\n        Listing storage listing = listings[_listingHash];\n\n        // Listing must be in apply stage or already on the whitelist\n        require(appWasMade(_listingHash) || listing.whitelisted, \"Listing does not exist.\");\n        \n        // Prevent multiple challenges\n        require(listing.challengeId == 0 || challenges[listing.challengeId].resolved, \"Listing is already challenged.\");\n\n        // check if apply stage is active\n        /* solium-disable-next-line security/no-block-members */\n        require(listing.applicationExpiry > now, \"Apply stage has passed.\");\n\n        // check if enough amount is staked for challenge\n        require(_amount >= listing.deposit, \"Not enough stake passed for challenge.\");\n        \n        pollNonce = pollNonce + 1;\n        challenges[pollNonce] = Challenge({\n            challenger: msg.sender,\n            stake: _amount,\n            resolved: false,\n            totalTokens: 0,\n            rewardPool: 0\n        });\n\n        // create a new poll for the challenge\n        polls[pollNonce] = Poll({\n            votesFor: 0,\n            votesAgainst: 0,\n            passed: false,\n            commitEndDate: now.add(commitStageLen) /* solium-disable-line security/no-block-members */\n        });\n\n        // Updates listingHash to store most recent challenge\n        listing.challengeId = pollNonce;\n\n        // Transfer tokens from challenger\n        require(token.transferFrom(msg.sender, address(this), _amount), \"Token transfer failed.\");\n\n        emit _Challenge(_listingHash, pollNonce, msg.sender);\n        return pollNonce;\n    }\n\n    // commits a vote for/against a listing\n    // plcr voting is not being used here\n    // to keep it simple, we just store the choice as a bool - true is for and false is against\n    function vote(bytes32 _listingHash, uint _amount, bool _choice) public {\n        Listing storage listing = listings[_listingHash];\n\n        // Listing must be in apply stage or already on the whitelist\n        require(appWasMade(_listingHash) || listing.whitelisted, \"Listing does not exist.\");\n\n        // Check if listing is challenged\n        require(listing.challengeId > 0 && !challenges[listing.challengeId].resolved, \"Listing is not challenged.\");\n\n        Poll storage poll = polls[listing.challengeId];\n\n        // check if commit stage is active\n        /* solium-disable-next-line security/no-block-members */\n        require(poll.commitEndDate > now, \"Commit period has passed.\");\n\n        // Transfer tokens from voter\n        require(token.transferFrom(msg.sender, address(this), _amount), \"Token transfer failed.\");\n\n        if(_choice) {\n            poll.votesFor += _amount;\n        } else {\n            poll.votesAgainst += _amount;\n        }\n\n        // TODO: fix vote override when same person is voing again\n        poll.votes[msg.sender] = Vote({\n            value: _choice,\n            stake: _amount,\n            claimed: false\n        });\n\n        emit _Vote(_listingHash, listing.challengeId, msg.sender);\n    }\n\n    // check if the listing can be whitelisted\n    function canBeWhitelisted(bytes32 _listingHash) public view returns (bool) {\n        uint challengeId = listings[_listingHash].challengeId;\n\n        // Ensures that the application was made,\n        // the application period has ended,\n        // the listingHash can be whitelisted,\n        // and either: the challengeId == 0, or the challenge has been resolved.\n        /* solium-disable */\n        if (appWasMade(_listingHash) && \n            listings[_listingHash].applicationExpiry < now && \n            !isWhitelisted(_listingHash) &&\n            (challengeId == 0 || challenges[challengeId].resolved == true)) {\n            return true; \n        }\n\n        return false;\n    }\n\n    // updates the status of a listing\n    function updateStatus(bytes32 _listingHash) public {\n        if (canBeWhitelisted(_listingHash)) {\n            listings[_listingHash].whitelisted = true;\n        } else {\n            resolveChallenge(_listingHash);\n        }\n    }\n\n    // ends a poll and returns if the poll passed or not\n    function endPoll(uint challengeId) private returns (bool didPass) {\n        require(polls[challengeId].commitEndDate > 0, \"Poll does not exist.\");\n        Poll storage poll = polls[challengeId];\n\n        // check if commit stage is active\n        /* solium-disable-next-line security/no-block-members */\n        require(poll.commitEndDate < now, \"Commit period is active.\");\n\n        if (poll.votesFor >= poll.votesAgainst) {\n            poll.passed = true;\n        } else {\n            poll.passed = false;\n        }\n\n        return poll.passed;\n    }\n\n    // resolves a challenge and calculates rewards\n    function resolveChallenge(bytes32 _listingHash) private {\n        // Check if listing is challenged\n        Listing memory listing = listings[_listingHash];\n        require(listing.challengeId > 0 && !challenges[listing.challengeId].resolved, \"Listing is not challenged.\");\n\n        uint challengeId = listing.challengeId;\n\n        // end the poll\n        bool pollPassed = endPoll(challengeId);\n\n        // updated challenge status\n        challenges[challengeId].resolved = true;\n\n        address challenger = challenges[challengeId].challenger;\n\n        // Case: challenge failed\n        if (pollPassed) {\n            challenges[challengeId].totalTokens = polls[challengeId].votesFor;\n            challenges[challengeId].rewardPool = challenges[challengeId].stake + polls[challengeId].votesAgainst;\n            listings[_listingHash].whitelisted = true;\n        } else { // Case: challenge succeeded\n            // give back the challenge stake to the challenger\n            require(token.transfer(challenger, challenges[challengeId].stake), \"Challenge stake return failed.\");\n            challenges[challengeId].totalTokens = polls[challengeId].votesAgainst;\n            challenges[challengeId].rewardPool = listing.deposit + polls[challengeId].votesFor;\n            delete listings[_listingHash];\n            delete listingNames[listing.arrIndex];\n        }\n\n        emit _ResolveChallenge(_listingHash, challengeId, msg.sender);\n    }\n\n    // claim rewards for a vote\n    function claimRewards(uint challengeId) public {\n        // check if challenge is resolved\n        require(challenges[challengeId].resolved == true, \"Challenge is not resolved.\");\n        \n        Poll storage poll = polls[challengeId];\n        Vote storage voteInstance = poll.votes[msg.sender];\n        \n        // check if vote reward is already claimed\n        require(voteInstance.claimed == false, \"Vote reward is already claimed.\");\n\n        // if winning party, calculate reward and transfer\n        if((poll.passed && voteInstance.value) || (!poll.passed && !voteInstance.value)) {\n            uint reward = (challenges[challengeId].rewardPool.div(challenges[challengeId].totalTokens)).mul(voteInstance.stake);\n            uint total = voteInstance.stake.add(reward);\n            require(token.transfer(msg.sender, total), \"Voting reward transfer failed.\");\n            emit _RewardClaimed(challengeId, total, msg.sender);\n        }\n\n        voteInstance.claimed = true;\n    }\n}",
  "sourcePath": "/Users/giocasu/Documents/radix/uncommon/simple-tcr/contracts/tcr.sol",
  "compiler": {
    "name": "solc",
    "version": "0.5.8+commit.23d335f2.Emscripten.clang"
  },
  "schemaVersion": "3.4.7",
  "updatedAt": "2022-05-10T15:05:12.307Z",
  "networkType": "ethereum",
  "devdoc": {
    "methods": {}
  },
  "userdoc": {
    "methods": {}
  }
}