{
  "contractName": "Tcr",
  "abi": [
    {
      "constant": true,
      "inputs": [],
      "name": "name",
      "outputs": [
        {
          "name": "",
          "type": "string"
        }
      ],
      "payable": false,
      "stateMutability": "view",
      "type": "function"
    },
    {
      "constant": true,
      "inputs": [],
      "name": "minDeposit",
      "outputs": [
        {
          "name": "",
          "type": "uint256"
        }
      ],
      "payable": false,
      "stateMutability": "view",
      "type": "function"
    },
    {
      "constant": true,
      "inputs": [],
      "name": "applyStageLen",
      "outputs": [
        {
          "name": "",
          "type": "uint256"
        }
      ],
      "payable": false,
      "stateMutability": "view",
      "type": "function"
    },
    {
      "constant": true,
      "inputs": [],
      "name": "pollNonce",
      "outputs": [
        {
          "name": "",
          "type": "uint256"
        }
      ],
      "payable": false,
      "stateMutability": "view",
      "type": "function"
    },
    {
      "constant": true,
      "inputs": [],
      "name": "commitStageLen",
      "outputs": [
        {
          "name": "",
          "type": "uint256"
        }
      ],
      "payable": false,
      "stateMutability": "view",
      "type": "function"
    },
    {
      "constant": true,
      "inputs": [
        {
          "name": "",
          "type": "uint256"
        }
      ],
      "name": "listingNames",
      "outputs": [
        {
          "name": "",
          "type": "string"
        }
      ],
      "payable": false,
      "stateMutability": "view",
      "type": "function"
    },
    {
      "constant": true,
      "inputs": [],
      "name": "token",
      "outputs": [
        {
          "name": "",
          "type": "address"
        }
      ],
      "payable": false,
      "stateMutability": "view",
      "type": "function"
    },
    {
      "inputs": [
        {
          "name": "_name",
          "type": "string"
        },
        {
          "name": "_token",
          "type": "address"
        },
        {
          "name": "_parameters",
          "type": "uint256[]"
        }
      ],
      "payable": false,
      "stateMutability": "nonpayable",
      "type": "constructor"
    },
    {
      "anonymous": false,
      "inputs": [
        {
          "indexed": true,
          "name": "listingHash",
          "type": "bytes32"
        },
        {
          "indexed": false,
          "name": "deposit",
          "type": "uint256"
        },
        {
          "indexed": false,
          "name": "data",
          "type": "string"
        },
        {
          "indexed": true,
          "name": "applicant",
          "type": "address"
        }
      ],
      "name": "_Application",
      "type": "event"
    },
    {
      "anonymous": false,
      "inputs": [
        {
          "indexed": true,
          "name": "listingHash",
          "type": "bytes32"
        },
        {
          "indexed": false,
          "name": "challengeId",
          "type": "uint256"
        },
        {
          "indexed": true,
          "name": "challenger",
          "type": "address"
        }
      ],
      "name": "_Challenge",
      "type": "event"
    },
    {
      "anonymous": false,
      "inputs": [
        {
          "indexed": true,
          "name": "listingHash",
          "type": "bytes32"
        },
        {
          "indexed": false,
          "name": "challengeId",
          "type": "uint256"
        },
        {
          "indexed": true,
          "name": "voter",
          "type": "address"
        }
      ],
      "name": "_Vote",
      "type": "event"
    },
    {
      "anonymous": false,
      "inputs": [
        {
          "indexed": true,
          "name": "listingHash",
          "type": "bytes32"
        },
        {
          "indexed": false,
          "name": "challengeId",
          "type": "uint256"
        },
        {
          "indexed": true,
          "name": "resolver",
          "type": "address"
        }
      ],
      "name": "_ResolveChallenge",
      "type": "event"
    },
    {
      "anonymous": false,
      "inputs": [
        {
          "indexed": true,
          "name": "challengeId",
          "type": "uint256"
        },
        {
          "indexed": false,
          "name": "reward",
          "type": "uint256"
        },
        {
          "indexed": true,
          "name": "voter",
          "type": "address"
        }
      ],
      "name": "_RewardClaimed",
      "type": "event"
    },
    {
      "constant": true,
      "inputs": [
        {
          "name": "_listingHash",
          "type": "bytes32"
        }
      ],
      "name": "isWhitelisted",
      "outputs": [
        {
          "name": "whitelisted",
          "type": "bool"
        }
      ],
      "payable": false,
      "stateMutability": "view",
      "type": "function"
    },
    {
      "constant": true,
      "inputs": [
        {
          "name": "_listingHash",
          "type": "bytes32"
        }
      ],
      "name": "appWasMade",
      "outputs": [
        {
          "name": "exists",
          "type": "bool"
        }
      ],
      "payable": false,
      "stateMutability": "view",
      "type": "function"
    },
    {
      "constant": true,
      "inputs": [],
      "name": "getAllListings",
      "outputs": [
        {
          "name": "",
          "type": "string[]"
        }
      ],
      "payable": false,
      "stateMutability": "view",
      "type": "function"
    },
    {
      "constant": true,
      "inputs": [],
      "name": "getDetails",
      "outputs": [
        {
          "name": "",
          "type": "string"
        },
        {
          "name": "",
          "type": "address"
        },
        {
          "name": "",
          "type": "uint256"
        },
        {
          "name": "",
          "type": "uint256"
        },
        {
          "name": "",
          "type": "uint256"
        }
      ],
      "payable": false,
      "stateMutability": "view",
      "type": "function"
    },
    {
      "constant": true,
      "inputs": [
        {
          "name": "_listingHash",
          "type": "bytes32"
        }
      ],
      "name": "getListingDetails",
      "outputs": [
        {
          "name": "",
          "type": "bool"
        },
        {
          "name": "",
          "type": "address"
        },
        {
          "name": "",
          "type": "uint256"
        },
        {
          "name": "",
          "type": "uint256"
        },
        {
          "name": "",
          "type": "uint256"
        },
        {
          "name": "",
          "type": "string"
        }
      ],
      "payable": false,
      "stateMutability": "view",
      "type": "function"
    },
    {
      "constant": false,
      "inputs": [
        {
          "name": "_listingHash",
          "type": "bytes32"
        },
        {
          "name": "_amount",
          "type": "uint256"
        },
        {
          "name": "_data",
          "type": "string"
        }
      ],
      "name": "propose",
      "outputs": [],
      "payable": false,
      "stateMutability": "nonpayable",
      "type": "function"
    },
    {
      "constant": false,
      "inputs": [
        {
          "name": "_listingHash",
          "type": "bytes32"
        },
        {
          "name": "_amount",
          "type": "uint256"
        }
      ],
      "name": "challenge",
      "outputs": [
        {
          "name": "challengeId",
          "type": "uint256"
        }
      ],
      "payable": false,
      "stateMutability": "nonpayable",
      "type": "function"
    },
    {
      "constant": false,
      "inputs": [
        {
          "name": "_listingHash",
          "type": "bytes32"
        },
        {
          "name": "_amount",
          "type": "uint256"
        },
        {
          "name": "_choice",
          "type": "bool"
        }
      ],
      "name": "vote",
      "outputs": [],
      "payable": false,
      "stateMutability": "nonpayable",
      "type": "function"
    },
    {
      "constant": true,
      "inputs": [
        {
          "name": "_listingHash",
          "type": "bytes32"
        }
      ],
      "name": "canBeWhitelisted",
      "outputs": [
        {
          "name": "",
          "type": "bool"
        }
      ],
      "payable": false,
      "stateMutability": "view",
      "type": "function"
    },
    {
      "constant": false,
      "inputs": [
        {
          "name": "_listingHash",
          "type": "bytes32"
        }
      ],
      "name": "updateStatus",
      "outputs": [],
      "payable": false,
      "stateMutability": "nonpayable",
      "type": "function"
    },
    {
      "constant": false,
      "inputs": [
        {
          "name": "challengeId",
          "type": "uint256"
        }
      ],
      "name": "claimRewards",
      "outputs": [],
      "payable": false,
      "stateMutability": "nonpayable",
      "type": "function"
    }
  ],
  "bytecode": "0x60806040523480156200001157600080fd5b50604051620035ae380380620035ae83398101806040526200003791908101906200032f565b600073ffffffffffffffffffffffffffffffffffffffff168273ffffffffffffffffffffffffffffffffffffffff161415620000aa576040517f08c379a0000000000000000000000000000000000000000000000000000000008152600401620000a1906200041f565b60405180910390fd5b81600460006101000a81548173ffffffffffffffffffffffffffffffffffffffff021916908373ffffffffffffffffffffffffffffffffffffffff16021790555082600590805190602001906200010392919062000169565b50806000815181106200011257fe5b6020026020010151600681905550806001815181106200012e57fe5b6020026020010151600781905550806002815181106200014a57fe5b602002602001015160088190555060006009819055505050506200057e565b828054600181600116156101000203166002900490600052602060002090601f016020900481019282601f10620001ac57805160ff1916838001178555620001dd565b82800160010185558215620001dd579182015b82811115620001dc578251825591602001919060010190620001bf565b5b509050620001ec9190620001f0565b5090565b6200021591905b8082111562000211576000816000905550600101620001f7565b5090565b90565b60008151905062000229816200054a565b92915050565b600082601f8301126200024157600080fd5b81516200025862000252826200046f565b62000441565b915081818352602084019350602081019050838560208402820111156200027e57600080fd5b60005b83811015620002b2578162000297888262000318565b84526020840193506020830192505060018101905062000281565b5050505092915050565b600082601f830112620002ce57600080fd5b8151620002e5620002df8262000498565b62000441565b915080825260208301602083018583830111156200030257600080fd5b6200030f83828462000514565b50505092915050565b600081519050620003298162000564565b92915050565b6000806000606084860312156200034557600080fd5b600084015167ffffffffffffffff8111156200036057600080fd5b6200036e86828701620002bc565b9350506020620003818682870162000218565b925050604084015167ffffffffffffffff8111156200039f57600080fd5b620003ad868287016200022f565b9150509250925092565b6000620003c6602683620004c5565b91507f546f6b656e20616464726573732073686f756c64206e6f74206265203020616460008301527f64726573732e00000000000000000000000000000000000000000000000000006020830152604082019050919050565b600060208201905081810360008301526200043a81620003b7565b9050919050565b6000604051905081810181811067ffffffffffffffff821117156200046557600080fd5b8060405250919050565b600067ffffffffffffffff8211156200048757600080fd5b602082029050602081019050919050565b600067ffffffffffffffff821115620004b057600080fd5b601f19601f8301169050602081019050919050565b600082825260208201905092915050565b6000620004e382620004ea565b9050919050565b600073ffffffffffffffffffffffffffffffffffffffff82169050919050565b6000819050919050565b60005b838110156200053457808201518184015260208101905062000517565b8381111562000544576000848401525b50505050565b6200055581620004d6565b81146200056157600080fd5b50565b6200056f816200050a565b81146200057b57600080fd5b50565b613020806200058e6000396000f3fe608060405234801561001057600080fd5b50600436106101165760003560e01c80638a59eb56116100a2578063ae73ccec11610071578063ae73ccec146102e6578063d7ab802d14610304578063e2083c1814610334578063fbbf93a014610364578063fc0c546a1461038657610116565b80638a59eb561461025e5780638cf8151f1461027a57806397508f36146102aa578063a63dd198146102c857610116565b80632c729fd1116100e95780632c729fd1146101a157806341b3d185146101bd578063691a38ab146101db5780637b3565611461020b5780637f0733601461024057610116565b806301a5e3fe1461011b57806306fdde031461014b5780630962ef7914610169578063212424c314610185575b600080fd5b61013560048036036101309190810190612284565b6103a4565b6040516101429190612acd565b60405180910390f35b6101536103d1565b6040516101609190612b6b565b60405180910390f35b610183600480360361017e91908101906123a4565b61046f565b005b61019f600480360361019a9190810190612338565b6107c6565b005b6101bb60048036036101b691908101906122e9565b610afe565b005b6101c5610e76565b6040516101d29190612de7565b60405180910390f35b6101f560048036036101f09190810190612284565b610e7c565b6040516102029190612acd565b60405180910390f35b61022560048036036102209190810190612284565b610f2b565b60405161023796959493929190612ae8565b60405180910390f35b610248611123565b6040516102559190612de7565b60405180910390f35b61027860048036036102739190810190612284565b611129565b005b610294600480360361028f9190810190612284565b611177565b6040516102a19190612acd565b60405180910390f35b6102b2611199565b6040516102bf9190612de7565b60405180910390f35b6102d061119f565b6040516102dd9190612de7565b60405180910390f35b6102ee6111a5565b6040516102fb9190612aab565b60405180910390f35b61031e600480360361031991908101906123a4565b6112d3565b60405161032b9190612b6b565b60405180910390f35b61034e600480360361034991908101906122ad565b61138c565b60405161035b9190612de7565b60405180910390f35b61036c6117d9565b60405161037d959493929190612b8d565b60405180910390f35b61038e6118bf565b60405161039b9190612b50565b60405180910390f35b60006001600083815260200190815260200160002060010160009054906101000a900460ff169050919050565b60058054600181600116156101000203166002900480601f0160208091040260200160405190810160405280929190818152602001828054600181600116156101000203166002900480156104675780601f1061043c57610100808354040283529160200191610467565b820191906000526020600020905b81548152906001019060200180831161044a57829003601f168201915b505050505081565b6001151560008083815260200190815260200160002060000160149054906101000a900460ff161515146104d8576040517f08c379a00000000000000000000000000000000000000000000000000000000081526004016104cf90612d67565b60405180910390fd5b600060036000838152602001908152602001600020905060008160040160003373ffffffffffffffffffffffffffffffffffffffff1673ffffffffffffffffffffffffffffffffffffffff1681526020019081526020016000209050600015158160020160009054906101000a900460ff1615151461058c576040517f08c379a000000000000000000000000000000000000000000000000000000000815260040161058390612c07565b60405180910390fd5b8160030160009054906101000a900460ff1680156105b857508060000160009054906101000a900460ff165b806105ed57508160030160009054906101000a900460ff161580156105ec57508060000160009054906101000a900460ff16155b5b156107a4576000610647826001015461063960008088815260200190815260200160002060030154600080898152602001908152602001600020600201546118e590919063ffffffff16565b61190b90919063ffffffff16565b9050600061066282846001015461194590919063ffffffff16565b9050600460009054906101000a900473ffffffffffffffffffffffffffffffffffffffff1673ffffffffffffffffffffffffffffffffffffffff1663a9059cbb33836040518363ffffffff1660e01b81526004016106c1929190612a22565b602060405180830381600087803b1580156106db57600080fd5b505af11580156106ef573d6000803e3d6000fd5b505050506040513d601f19601f82011682018060405250610713919081019061225b565b610752576040517f08c379a000000000000000000000000000000000000000000000000000000000815260040161074990612c87565b60405180910390fd5b3373ffffffffffffffffffffffffffffffffffffffff16857f6f4c982acc31b0af2cf1dc1556f21c0325d893782d65e83c68a5534a33f59957836040516107999190612de7565b60405180910390a350505b60018160020160006101000a81548160ff021916908315150217905550505050565b6107cf846103a4565b1561080f576040517f08c379a000000000000000000000000000000000000000000000000000000000815260040161080690612dc7565b60405180910390fd5b61081884611177565b15610858576040517f08c379a000000000000000000000000000000000000000000000000000000000815260040161084f90612be7565b60405180910390fd5b60065483101561089d576040517f08c379a000000000000000000000000000000000000000000000000000000000815260040161089490612cc7565b60405180910390fd5b6000600160008681526020019081526020016000209050338160010160016101000a81548173ffffffffffffffffffffffffffffffffffffffff021916908373ffffffffffffffffffffffffffffffffffffffff160217905550828282600401919061090a929190611ff4565b506002816004019080600181540180825580915050906001820390600052602060002001600090919290919091509080546001816001161561010002031660029004610957929190612074565b5050600160028054905003816005018190555061097f6007544261194590919063ffffffff16565b8160000181905550838160020181905550600460009054906101000a900473ffffffffffffffffffffffffffffffffffffffff1673ffffffffffffffffffffffffffffffffffffffff166323b872dd8260010160019054906101000a900473ffffffffffffffffffffffffffffffffffffffff1630876040518463ffffffff1660e01b8152600401610a1393929190612a4b565b602060405180830381600087803b158015610a2d57600080fd5b505af1158015610a41573d6000803e3d6000fd5b505050506040513d601f19601f82011682018060405250610a65919081019061225b565b610aa4576040517f08c379a0000000000000000000000000000000000000000000000000000000008152600401610a9b90612da7565b60405180910390fd5b3373ffffffffffffffffffffffffffffffffffffffff16857fe1cdd401be51ef2c8159945a96274b69ba482f2a5e2131700beeda434fd6d58f868686604051610aef93929190612e02565b60405180910390a35050505050565b6000600160008581526020019081526020016000209050610b1e84611177565b80610b3757508060010160009054906101000a900460ff165b610b76576040517f08c379a0000000000000000000000000000000000000000000000000000000008152600401610b6d90612ce7565b60405180910390fd5b60008160030154118015610bae57506000808260030154815260200190815260200160002060000160149054906101000a900460ff16155b610bed576040517f08c379a0000000000000000000000000000000000000000000000000000000008152600401610be490612c47565b60405180910390fd5b60006003600083600301548152602001908152602001600020905042816002015411610c4e576040517f08c379a0000000000000000000000000000000000000000000000000000000008152600401610c4590612d07565b60405180910390fd5b600460009054906101000a900473ffffffffffffffffffffffffffffffffffffffff1673ffffffffffffffffffffffffffffffffffffffff166323b872dd3330876040518463ffffffff1660e01b8152600401610cad939291906129eb565b602060405180830381600087803b158015610cc757600080fd5b505af1158015610cdb573d6000803e3d6000fd5b505050506040513d601f19601f82011682018060405250610cff919081019061225b565b610d3e576040517f08c379a0000000000000000000000000000000000000000000000000000000008152600401610d3590612da7565b60405180910390fd5b8215610d5b57838160000160008282540192505081905550610d6e565b8381600101600082825401925050819055505b60405180606001604052808415158152602001858152602001600015158152508160040160003373ffffffffffffffffffffffffffffffffffffffff1673ffffffffffffffffffffffffffffffffffffffff16815260200190815260200160002060008201518160000160006101000a81548160ff0219169083151502179055506020820151816001015560408201518160020160006101000a81548160ff0219169083151502179055509050503373ffffffffffffffffffffffffffffffffffffffff16857f7a1c5ce18abad3692f6bdf85262d38c3ad4ee5cabf88020e5a0e4d6b841d83768460030154604051610e679190612de7565b60405180910390a35050505050565b60065481565b60008060016000848152602001908152602001600020600301549050610ea183611177565b8015610ec25750426001600085815260200190815260200160002060000154105b8015610ed45750610ed2836103a4565b155b8015610f1157506000811480610f1057506001151560008083815260200190815260200160002060000160149054906101000a900460ff161515145b5b15610f20576001915050610f26565b60009150505b919050565b60008060008060006060610f3d6120fb565b600160008981526020019081526020016000206040518060e0016040529081600082015481526020016001820160009054906101000a900460ff161515151581526020016001820160019054906101000a900473ffffffffffffffffffffffffffffffffffffffff1673ffffffffffffffffffffffffffffffffffffffff1673ffffffffffffffffffffffffffffffffffffffff1681526020016002820154815260200160038201548152602001600482018054600181600116156101000203166002900480601f0160208091040260200160405190810160405280929190818152602001828054600181600116156101000203166002900480156110835780601f1061105857610100808354040283529160200191611083565b820191906000526020600020905b81548152906001019060200180831161106657829003601f168201915b5050505050815260200160058201548152505090506110a188611177565b806110ad575080602001515b6110ec576040517f08c379a00000000000000000000000000000000000000000000000000000000081526004016110e390612ce7565b60405180910390fd5b806020015181604001518260600151836080015184600001518560a001518090509650965096509650965096505091939550919395565b60075481565b61113281610e7c565b1561116a57600180600083815260200190815260200160002060010160006101000a81548160ff021916908315150217905550611174565b61117381611964565b5b50565b6000806001600084815260200190815260200160002060000154119050919050565b60095481565b60085481565b6060806002805490506040519080825280602002602001820160405280156111e157816020015b60608152602001906001900390816111cc5790505b50905060008090505b6002805490508110156112cb576002818154811061120457fe5b906000526020600020018054600181600116156101000203166002900480601f0160208091040260200160405190810160405280929190818152602001828054600181600116156101000203166002900480156112a25780601f10611277576101008083540402835291602001916112a2565b820191906000526020600020905b81548152906001019060200180831161128557829003601f168201915b50505050508282815181106112b357fe5b602002602001018190525080806001019150506111ea565b508091505090565b600281815481106112e057fe5b906000526020600020016000915090508054600181600116156101000203166002900480601f0160208091040260200160405190810160405280929190818152602001828054600181600116156101000203166002900480156113845780601f1061135957610100808354040283529160200191611384565b820191906000526020600020905b81548152906001019060200180831161136757829003601f168201915b505050505081565b6000806001600085815260200190815260200160002090506113ad84611177565b806113c657508060010160009054906101000a900460ff165b611405576040517f08c379a00000000000000000000000000000000000000000000000000000000081526004016113fc90612ce7565b60405180910390fd5b60008160030154148061143b57506000808260030154815260200190815260200160002060000160149054906101000a900460ff165b61147a576040517f08c379a000000000000000000000000000000000000000000000000000000000815260040161147190612d87565b60405180910390fd5b428160000154116114c0576040517f08c379a00000000000000000000000000000000000000000000000000000000081526004016114b790612ca7565b60405180910390fd5b8060020154831015611507576040517f08c379a00000000000000000000000000000000000000000000000000000000081526004016114fe90612d47565b60405180910390fd5b6001600954016009819055506040518060a001604052803373ffffffffffffffffffffffffffffffffffffffff168152602001600015158152602001848152602001600081526020016000815250600080600954815260200190815260200160002060008201518160000160006101000a81548173ffffffffffffffffffffffffffffffffffffffff021916908373ffffffffffffffffffffffffffffffffffffffff16021790555060208201518160000160146101000a81548160ff0219169083151502179055506040820151816001015560608201518160020155608082015181600301559050506040518060800160405280600081526020016000815260200161161f6008544261194590919063ffffffff16565b81526020016000151581525060036000600954815260200190815260200160002060008201518160000155602082015181600101556040820151816002015560608201518160030160006101000a81548160ff0219169083151502179055509050506009548160030181905550600460009054906101000a900473ffffffffffffffffffffffffffffffffffffffff1673ffffffffffffffffffffffffffffffffffffffff166323b872dd3330866040518463ffffffff1660e01b81526004016116eb939291906129eb565b602060405180830381600087803b15801561170557600080fd5b505af1158015611719573d6000803e3d6000fd5b505050506040513d601f19601f8201168201806040525061173d919081019061225b565b61177c576040517f08c379a000000000000000000000000000000000000000000000000000000000815260040161177390612da7565b60405180910390fd5b3373ffffffffffffffffffffffffffffffffffffffff16847fc911f55bb4170a166467bde15c8799c1d2bb96a79f6bd9bc5cd3a4f05f768f6f6009546040516117c59190612de7565b60405180910390a360095491505092915050565b6060600080600080606060058054600181600116156101000203166002900480601f0160208091040260200160405190810160405280929190818152602001828054600181600116156101000203166002900480156118795780601f1061184e57610100808354040283529160200191611879565b820191906000526020600020905b81548152906001019060200180831161185c57829003601f168201915b5050505050905080600460009054906101000a900473ffffffffffffffffffffffffffffffffffffffff1660065460075460085495509550955095509550509091929394565b600460009054906101000a900473ffffffffffffffffffffffffffffffffffffffff1681565b60008082116118f357600080fd5b60008284816118fe57fe5b0490508091505092915050565b60008083141561191e576000905061193f565b600082840290508284828161192f57fe5b041461193a57600080fd5b809150505b92915050565b60008082840190508381101561195a57600080fd5b8091505092915050565b61196c6120fb565b600160008381526020019081526020016000206040518060e0016040529081600082015481526020016001820160009054906101000a900460ff161515151581526020016001820160019054906101000a900473ffffffffffffffffffffffffffffffffffffffff1673ffffffffffffffffffffffffffffffffffffffff1673ffffffffffffffffffffffffffffffffffffffff1681526020016002820154815260200160038201548152602001600482018054600181600116156101000203166002900480601f016020809104026020016040519081016040528092919081815260200182805460018160011615610100020316600290048015611ab25780601f10611a8757610100808354040283529160200191611ab2565b820191906000526020600020905b815481529060010190602001808311611a9557829003601f168201915b50505050508152602001600582015481525050905060008160800151118015611aff57506000808260800151815260200190815260200160002060000160149054906101000a900460ff16155b611b3e576040517f08c379a0000000000000000000000000000000000000000000000000000000008152600401611b3590612c47565b60405180910390fd5b6000816080015190506000611b5282611ed4565b9050600160008084815260200190815260200160002060000160146101000a81548160ff021916908315150217905550600080600084815260200190815260200160002060000160009054906101000a900473ffffffffffffffffffffffffffffffffffffffff1690508115611c6c576003600084815260200190815260200160002060000154600080858152602001908152602001600020600301819055506003600084815260200190815260200160002060010154600080858152602001908152602001600020600101540160008085815260200190815260200160002060020181905550600180600087815260200190815260200160002060010160006101000a81548160ff021916908315150217905550611e7e565b600460009054906101000a900473ffffffffffffffffffffffffffffffffffffffff1673ffffffffffffffffffffffffffffffffffffffff1663a9059cbb82600080878152602001908152602001600020600101546040518363ffffffff1660e01b8152600401611cde929190612a82565b602060405180830381600087803b158015611cf857600080fd5b505af1158015611d0c573d6000803e3d6000fd5b505050506040513d601f19601f82011682018060405250611d30919081019061225b565b611d6f576040517f08c379a0000000000000000000000000000000000000000000000000000000008152600401611d6690612d27565b60405180910390fd5b600360008481526020019081526020016000206001015460008085815260200190815260200160002060030181905550600360008481526020019081526020016000206000015484606001510160008085815260200190815260200160002060020181905550600160008681526020019081526020016000206000808201600090556001820160006101000a81549060ff02191690556001820160016101000a81549073ffffffffffffffffffffffffffffffffffffffff021916905560028201600090556003820160009055600482016000611e4c9190612150565b6005820160009055505060028460c0015181548110611e6757fe5b906000526020600020016000611e7d9190612150565b5b3373ffffffffffffffffffffffffffffffffffffffff16857f779e2848f275ef7b62be066e59dc34b2b8d79758079849859de844a3d9b9fb0d85604051611ec59190612de7565b60405180910390a35050505050565b600080600360008481526020019081526020016000206002015411611f2e576040517f08c379a0000000000000000000000000000000000000000000000000000000008152600401611f2590612c27565b60405180910390fd5b600060036000848152602001908152602001600020905042816002015410611f8b576040517f08c379a0000000000000000000000000000000000000000000000000000000008152600401611f8290612c67565b60405180910390fd5b8060010154816000015410611fbc5760018160030160006101000a81548160ff021916908315150217905550611fda565b60008160030160006101000a81548160ff0219169083151502179055505b8060030160009054906101000a900460ff16915050919050565b828054600181600116156101000203166002900490600052602060002090601f016020900481019282601f1061203557803560ff1916838001178555612063565b82800160010185558215612063579182015b82811115612062578235825591602001919060010190612047565b5b5090506120709190612198565b5090565b828054600181600116156101000203166002900490600052602060002090601f016020900481019282601f106120ad57805485556120ea565b828001600101855582156120ea57600052602060002091601f016020900482015b828111156120e95782548255916001019190600101906120ce565b5b5090506120f79190612198565b5090565b6040518060e0016040528060008152602001600015158152602001600073ffffffffffffffffffffffffffffffffffffffff168152602001600081526020016000815260200160608152602001600081525090565b50805460018160011615610100020316600290046000825580601f106121765750612195565b601f0160209004906000526020600020908101906121949190612198565b5b50565b6121ba91905b808211156121b657600081600090555060010161219e565b5090565b90565b6000813590506121cc81612fa1565b92915050565b6000815190506121e181612fa1565b92915050565b6000813590506121f681612fb8565b92915050565b60008083601f84011261220e57600080fd5b8235905067ffffffffffffffff81111561222757600080fd5b60208301915083600182028301111561223f57600080fd5b9250929050565b60008135905061225581612fcf565b92915050565b60006020828403121561226d57600080fd5b600061227b848285016121d2565b91505092915050565b60006020828403121561229657600080fd5b60006122a4848285016121e7565b91505092915050565b600080604083850312156122c057600080fd5b60006122ce858286016121e7565b92505060206122df85828601612246565b9150509250929050565b6000806000606084860312156122fe57600080fd5b600061230c868287016121e7565b935050602061231d86828701612246565b925050604061232e868287016121bd565b9150509250925092565b6000806000806060858703121561234e57600080fd5b600061235c878288016121e7565b945050602061236d87828801612246565b935050604085013567ffffffffffffffff81111561238a57600080fd5b612396878288016121fc565b925092505092959194509250565b6000602082840312156123b657600080fd5b60006123c484828501612246565b91505092915050565b60006123d983836124f8565b905092915050565b6123ea81612ef4565b82525050565b6123f981612ea2565b82525050565b600061240a82612e41565b6124148185612e6f565b93508360208202850161242685612e34565b8060005b85811015612462578484038952815161244385826123cd565b945061244e83612e62565b925060208a0199505060018101905061242a565b50829750879550505050505092915050565b61247d81612eb4565b82525050565b61248c81612f06565b82525050565b600061249e8385612e91565b93506124ab838584612f4e565b6124b483612f90565b840190509392505050565b60006124ca82612e57565b6124d48185612e91565b93506124e4818560208601612f5d565b6124ed81612f90565b840191505092915050565b600061250382612e4c565b61250d8185612e80565b935061251d818560208601612f5d565b61252681612f90565b840191505092915050565b600061253c82612e4c565b6125468185612e91565b9350612556818560208601612f5d565b61255f81612f90565b840191505092915050565b6000612577602283612e91565b91507f4c697374696e6720697320616c726561647920696e206170706c79207374616760008301527f652e0000000000000000000000000000000000000000000000000000000000006020830152604082019050919050565b60006125dd601f83612e91565b91507f566f74652072657761726420697320616c726561647920636c61696d65642e006000830152602082019050919050565b600061261d601483612e91565b91507f506f6c6c20646f6573206e6f742065786973742e0000000000000000000000006000830152602082019050919050565b600061265d601a83612e91565b91507f4c697374696e67206973206e6f74206368616c6c656e6765642e0000000000006000830152602082019050919050565b600061269d601883612e91565b91507f436f6d6d697420706572696f64206973206163746976652e00000000000000006000830152602082019050919050565b60006126dd601e83612e91565b91507f566f74696e6720726577617264207472616e73666572206661696c65642e00006000830152602082019050919050565b600061271d601783612e91565b91507f4170706c7920737461676520686173207061737365642e0000000000000000006000830152602082019050919050565b600061275d602183612e91565b91507f4e6f7420656e6f756768207374616b6520666f72206170706c69636174696f6e60008301527f2e000000000000000000000000000000000000000000000000000000000000006020830152604082019050919050565b60006127c3601783612e91565b91507f4c697374696e6720646f6573206e6f742065786973742e0000000000000000006000830152602082019050919050565b6000612803601983612e91565b91507f436f6d6d697420706572696f6420686173207061737365642e000000000000006000830152602082019050919050565b6000612843601e83612e91565b91507f4368616c6c656e6765207374616b652072657475726e206661696c65642e00006000830152602082019050919050565b6000612883602683612e91565b91507f4e6f7420656e6f756768207374616b652070617373656420666f72206368616c60008301527f6c656e67652e00000000000000000000000000000000000000000000000000006020830152604082019050919050565b60006128e9601a83612e91565b91507f4368616c6c656e6765206973206e6f74207265736f6c7665642e0000000000006000830152602082019050919050565b6000612929601e83612e91565b91507f4c697374696e6720697320616c7265616479206368616c6c656e6765642e00006000830152602082019050919050565b6000612969601683612e91565b91507f546f6b656e207472616e73666572206661696c65642e000000000000000000006000830152602082019050919050565b60006129a9601f83612e91565b91507f4c697374696e6720697320616c72656164792077686974656c69737465642e006000830152602082019050919050565b6129e581612eea565b82525050565b6000606082019050612a0060008301866123e1565b612a0d60208301856123f0565b612a1a60408301846129dc565b949350505050565b6000604082019050612a3760008301856123e1565b612a4460208301846129dc565b9392505050565b6000606082019050612a6060008301866123f0565b612a6d60208301856123f0565b612a7a60408301846129dc565b949350505050565b6000604082019050612a9760008301856123f0565b612aa460208301846129dc565b9392505050565b60006020820190508181036000830152612ac581846123ff565b905092915050565b6000602082019050612ae26000830184612474565b92915050565b600060c082019050612afd6000830189612474565b612b0a60208301886123f0565b612b1760408301876129dc565b612b2460608301866129dc565b612b3160808301856129dc565b81810360a0830152612b4381846124bf565b9050979650505050505050565b6000602082019050612b656000830184612483565b92915050565b60006020820190508181036000830152612b858184612531565b905092915050565b600060a0820190508181036000830152612ba781886124bf565b9050612bb660208301876123f0565b612bc360408301866129dc565b612bd060608301856129dc565b612bdd60808301846129dc565b9695505050505050565b60006020820190508181036000830152612c008161256a565b9050919050565b60006020820190508181036000830152612c20816125d0565b9050919050565b60006020820190508181036000830152612c4081612610565b9050919050565b60006020820190508181036000830152612c6081612650565b9050919050565b60006020820190508181036000830152612c8081612690565b9050919050565b60006020820190508181036000830152612ca0816126d0565b9050919050565b60006020820190508181036000830152612cc081612710565b9050919050565b60006020820190508181036000830152612ce081612750565b9050919050565b60006020820190508181036000830152612d00816127b6565b9050919050565b60006020820190508181036000830152612d20816127f6565b9050919050565b60006020820190508181036000830152612d4081612836565b9050919050565b60006020820190508181036000830152612d6081612876565b9050919050565b60006020820190508181036000830152612d80816128dc565b9050919050565b60006020820190508181036000830152612da08161291c565b9050919050565b60006020820190508181036000830152612dc08161295c565b9050919050565b60006020820190508181036000830152612de08161299c565b9050919050565b6000602082019050612dfc60008301846129dc565b92915050565b6000604082019050612e1760008301866129dc565b8181036020830152612e2a818486612492565b9050949350505050565b6000602082019050919050565b600081519050919050565b600081519050919050565b600081519050919050565b6000602082019050919050565b600082825260208201905092915050565b600082825260208201905092915050565b600082825260208201905092915050565b6000612ead82612eca565b9050919050565b60008115159050919050565b6000819050919050565b600073ffffffffffffffffffffffffffffffffffffffff82169050919050565b6000819050919050565b6000612eff82612f2a565b9050919050565b6000612f1182612f18565b9050919050565b6000612f2382612eca565b9050919050565b6000612f3582612f3c565b9050919050565b6000612f4782612eca565b9050919050565b82818337600083830152505050565b60005b83811015612f7b578082015181840152602081019050612f60565b83811115612f8a576000848401525b50505050565b6000601f19601f8301169050919050565b612faa81612eb4565b8114612fb557600080fd5b50565b612fc181612ec0565b8114612fcc57600080fd5b50565b612fd881612eea565b8114612fe357600080fd5b5056fea265627a7a72305820abf0e8612cd269ef7141b4cae9855fc0fea1f13a2c823a2c57d1d292765709ba6c6578706572696d656e74616cf50037",
  "source": "// Most of the code in this contract is derived from the generic TCR implementation from Mike Goldin and (the adChain) team\n// This contract strips out most of the details and only keeps the basic TCR functionality (apply/propose, challenge, vote, resolve)\n// Consider this to be the \"hello world\" for TCR implementation\n// For real world usage, please refer to the generic TCR implementation\n// https://github.com/skmgoldin/tcr\n\npragma solidity ^0.5.8;\npragma experimental ABIEncoderV2;\n\n// import \"../node_modules/openzeppelin-solidity/contracts/token/ERC20/ERC20.sol\";\nimport \"./token.sol\";\nimport \"../node_modules/openzeppelin-solidity/contracts/math/SafeMath.sol\";\n\ncontract Tcr {\n    using SafeMath for uint256;\n\n    struct Listing {\n        uint256 applicationExpiry; // Expiration date of apply stage\n        bool whitelisted; // Indicates registry status\n        address owner; // Owner of Listing\n        uint256 deposit; // Number of tokens in the listing\n        uint256 challengeId; // the challenge id of the current challenge\n        string data; // name of listing (for UI)\n        uint256 arrIndex; // arrayIndex of listing in listingNames array (for deletion)\n    }\n\n    // instead of using the elegant PLCR voting, we are using just a list because this is *simple-TCR*\n    struct Vote {\n        bool value;\n        uint256 stake;\n        bool claimed;\n    }\n\n    struct Poll {\n        uint256 votesFor;\n        uint256 votesAgainst;\n        uint256 commitEndDate;\n        bool passed;\n        mapping(address => Vote) votes; // revealed by default; no partial locking\n    }\n\n    struct Challenge {\n        address challenger; // Owner of Challenge\n        bool resolved; // Indication of if challenge is resolved\n        uint256 stake; // Number of tokens at stake for either party during challenge\n        uint256 rewardPool; // number of tokens from losing side - winning reward\n        uint256 totalTokens; // number of tokens from winning side - to be returned\n    }\n\n    // Maps challengeIDs to associated challenge data\n    mapping(uint256 => Challenge) private challenges;\n\n    // Maps listingHashes to associated listingHash data\n    mapping(bytes32 => Listing) private listings;\n    string[] public listingNames;\n\n    // Maps polls to associated challenge\n    mapping(uint256 => Poll) private polls;\n\n    // Global Variables\n    StandardToken public token;\n    string public name;\n    uint256 public minDeposit;\n    uint256 public applyStageLen;\n    uint256 public commitStageLen;\n\n    uint256 private constant INITIAL_POLL_NONCE = 0;\n    uint256 public pollNonce;\n\n    // Events\n    event _Application(\n        bytes32 indexed listingHash,\n        uint256 deposit,\n        string data,\n        address indexed applicant\n    );\n    event _Challenge(\n        bytes32 indexed listingHash,\n        uint256 challengeId,\n        address indexed challenger\n    );\n    event _Vote(\n        bytes32 indexed listingHash,\n        uint256 challengeId,\n        address indexed voter\n    );\n    event _ResolveChallenge(\n        bytes32 indexed listingHash,\n        uint256 challengeId,\n        address indexed resolver\n    );\n    event _RewardClaimed(\n        uint256 indexed challengeId,\n        uint256 reward,\n        address indexed voter\n    );\n\n    // using the constructor to initialize the TCR parameters\n    // again, to keep it simple, skipping the Parameterizer and ParameterizerFactory\n    constructor(\n        string memory _name,\n        address _token,\n        uint256[] memory _parameters\n    ) public {\n        require(_token != address(0), \"Token address should not be 0 address.\");\n\n        token = StandardToken(_token);\n        name = _name;\n\n        // minimum deposit for listing to be whitelisted\n        minDeposit = _parameters[0];\n\n        // period over which applicants wait to be whitelisted\n        applyStageLen = _parameters[1];\n\n        // length of commit period for voting\n        commitStageLen = _parameters[2];\n\n        // Initialize the poll nonce\n        pollNonce = INITIAL_POLL_NONCE;\n    }\n\n    // returns whether a listing is already whitelisted\n    function isWhitelisted(bytes32 _listingHash)\n        public\n        view\n        returns (bool whitelisted)\n    {\n        return listings[_listingHash].whitelisted;\n    }\n\n    // returns if a listing is in apply stage\n    function appWasMade(bytes32 _listingHash)\n        public\n        view\n        returns (bool exists)\n    {\n        return listings[_listingHash].applicationExpiry > 0;\n    }\n\n    // get all listing names (for UI)\n    // not to be used in a production use case\n    function getAllListings() public view returns (string[] memory) {\n        string[] memory listingArr = new string[](listingNames.length);\n        for (uint256 i = 0; i < listingNames.length; i++) {\n            listingArr[i] = listingNames[i];\n        }\n        return listingArr;\n    }\n\n    // get details of this registry (for UI)\n    function getDetails()\n        public\n        view\n        returns (\n            string memory,\n            address,\n            uint256,\n            uint256,\n            uint256\n        )\n    {\n        string memory _name = name;\n        return (\n            _name,\n            address(token),\n            minDeposit,\n            applyStageLen,\n            commitStageLen\n        );\n    }\n\n    // get details of a listing (for UI)\n    function getListingDetails(bytes32 _listingHash)\n        public\n        view\n        returns (\n            bool,\n            address,\n            uint256,\n            uint256,\n            uint256,\n            string memory\n        )\n    {\n        Listing memory listingIns = listings[_listingHash];\n\n        // Listing must be in apply stage or already on the whitelist\n        require(\n            appWasMade(_listingHash) || listingIns.whitelisted,\n            \"Listing does not exist.\"\n        );\n\n        return (\n            listingIns.whitelisted, //0\n            listingIns.owner, // 1\n            listingIns.deposit, // 2\n            listingIns.challengeId, //3\n            listingIns.applicationExpiry, //4\n            listingIns.data //5\n        );\n    }\n\n    // proposes a listing to be whitelisted\n    function propose(\n        bytes32 _listingHash,\n        uint256 _amount,\n        string calldata _data\n    ) external {\n        require(\n            !isWhitelisted(_listingHash),\n            \"Listing is already whitelisted.\"\n        );\n        require(\n            !appWasMade(_listingHash),\n            \"Listing is already in apply stage.\"\n        );\n        require(_amount >= minDeposit, \"Not enough stake for application.\");\n\n        // Sets owner\n        Listing storage listing = listings[_listingHash];\n        listing.owner = msg.sender;\n        listing.data = _data;\n        listingNames.push(listing.data);\n        listing.arrIndex = listingNames.length - 1;\n\n        // Sets apply stage end time\n        // now or block.timestamp is safe here (can live with ~15 sec approximation)\n        /* solium-disable-next-line security/no-block-members */\n        listing.applicationExpiry = now.add(applyStageLen);\n        listing.deposit = _amount;\n\n        // Transfer tokens from user\n        require(\n            token.transferFrom(listing.owner, address(this), _amount),\n            \"Token transfer failed.\"\n        );\n\n        emit _Application(_listingHash, _amount, _data, msg.sender);\n    }\n\n    // challenges a listing from being whitelisted\n    function challenge(bytes32 _listingHash, uint256 _amount)\n        external\n        returns (uint256 challengeId)\n    {\n        Listing storage listing = listings[_listingHash];\n\n        // Listing must be in apply stage or already on the whitelist\n        require(\n            appWasMade(_listingHash) || listing.whitelisted,\n            \"Listing does not exist.\"\n        );\n\n        // Prevent multiple challenges\n        require(\n            listing.challengeId == 0 ||\n                challenges[listing.challengeId].resolved,\n            \"Listing is already challenged.\"\n        );\n\n        // check if apply stage is active\n        /* solium-disable-next-line security/no-block-members */\n        require(listing.applicationExpiry > now, \"Apply stage has passed.\");\n\n        // check if enough amount is staked for challenge\n        require(\n            _amount >= listing.deposit,\n            \"Not enough stake passed for challenge.\"\n        );\n\n        pollNonce = pollNonce + 1;\n        challenges[pollNonce] = Challenge({\n            challenger: msg.sender,\n            stake: _amount,\n            resolved: false,\n            totalTokens: 0,\n            rewardPool: 0\n        });\n\n        // create a new poll for the challenge\n        polls[pollNonce] = Poll({\n            votesFor: 0,\n            votesAgainst: 0,\n            passed: false,\n            commitEndDate: now.add(commitStageLen) /* solium-disable-line security/no-block-members */\n        });\n\n        // Updates listingHash to store most recent challenge\n        listing.challengeId = pollNonce;\n\n        // Transfer tokens from challenger\n        require(\n            token.transferFrom(msg.sender, address(this), _amount),\n            \"Token transfer failed.\"\n        );\n\n        emit _Challenge(_listingHash, pollNonce, msg.sender);\n        return pollNonce;\n    }\n\n    // commits a vote for/against a listing\n    // plcr voting is not being used here\n    // to keep it simple, we just store the choice as a bool - true is for and false is against\n    function vote(\n        bytes32 _listingHash,\n        uint256 _amount,\n        bool _choice\n    ) public {\n        Listing storage listing = listings[_listingHash];\n\n        // Listing must be in apply stage or already on the whitelist\n        require(\n            appWasMade(_listingHash) || listing.whitelisted,\n            \"Listing does not exist.\"\n        );\n\n        // Check if listing is challenged\n        require(\n            listing.challengeId > 0 &&\n                !challenges[listing.challengeId].resolved,\n            \"Listing is not challenged.\"\n        );\n\n        Poll storage poll = polls[listing.challengeId];\n\n        // check if commit stage is active\n        /* solium-disable-next-line security/no-block-members */\n        require(poll.commitEndDate > now, \"Commit period has passed.\");\n\n        // Transfer tokens from voter\n        require(\n            token.transferFrom(msg.sender, address(this), _amount),\n            \"Token transfer failed.\"\n        );\n\n        if (_choice) {\n            poll.votesFor += _amount;\n        } else {\n            poll.votesAgainst += _amount;\n        }\n\n        // TODO: fix vote override when same person is voing again\n        poll.votes[msg.sender] = Vote({\n            value: _choice,\n            stake: _amount,\n            claimed: false\n        });\n\n        emit _Vote(_listingHash, listing.challengeId, msg.sender);\n    }\n\n    // check if the listing can be whitelisted\n    function canBeWhitelisted(bytes32 _listingHash) public view returns (bool) {\n        uint256 challengeId = listings[_listingHash].challengeId;\n\n        // Ensures that the application was made,\n        // the application period has ended,\n        // the listingHash can be whitelisted,\n        // and either: the challengeId == 0, or the challenge has been resolved.\n        /* solium-disable */\n        if (\n            appWasMade(_listingHash) &&\n            listings[_listingHash].applicationExpiry < now &&\n            !isWhitelisted(_listingHash) &&\n            (challengeId == 0 || challenges[challengeId].resolved == true)\n        ) {\n            return true;\n        }\n\n        return false;\n    }\n\n    // updates the status of a listing\n    function updateStatus(bytes32 _listingHash) public {\n        if (canBeWhitelisted(_listingHash)) {\n            listings[_listingHash].whitelisted = true;\n        } else {\n            resolveChallenge(_listingHash);\n        }\n    }\n\n    // ends a poll and returns if the poll passed or not\n    function endPoll(uint256 challengeId) private returns (bool didPass) {\n        require(polls[challengeId].commitEndDate > 0, \"Poll does not exist.\");\n        Poll storage poll = polls[challengeId];\n\n        // check if commit stage is active\n        /* solium-disable-next-line security/no-block-members */\n        require(poll.commitEndDate < now, \"Commit period is active.\");\n\n        if (poll.votesFor >= poll.votesAgainst) {\n            poll.passed = true;\n        } else {\n            poll.passed = false;\n        }\n\n        return poll.passed;\n    }\n\n    // resolves a challenge and calculates rewards\n    function resolveChallenge(bytes32 _listingHash) private {\n        // Check if listing is challenged\n        Listing memory listing = listings[_listingHash];\n        require(\n            listing.challengeId > 0 &&\n                !challenges[listing.challengeId].resolved,\n            \"Listing is not challenged.\"\n        );\n\n        uint256 challengeId = listing.challengeId;\n\n        // end the poll\n        bool pollPassed = endPoll(challengeId);\n\n        // updated challenge status\n        challenges[challengeId].resolved = true;\n\n        address challenger = challenges[challengeId].challenger;\n\n        // Case: challenge failed\n        if (pollPassed) {\n            challenges[challengeId].totalTokens = polls[challengeId].votesFor;\n            challenges[challengeId].rewardPool =\n                challenges[challengeId].stake +\n                polls[challengeId].votesAgainst;\n            listings[_listingHash].whitelisted = true;\n        } else {\n            // Case: challenge succeeded\n            // give back the challenge stake to the challenger\n            require(\n                token.transfer(challenger, challenges[challengeId].stake),\n                \"Challenge stake return failed.\"\n            );\n            challenges[challengeId].totalTokens = polls[challengeId]\n                .votesAgainst;\n            challenges[challengeId].rewardPool =\n                listing.deposit +\n                polls[challengeId].votesFor;\n            delete listings[_listingHash];\n            delete listingNames[listing.arrIndex];\n        }\n\n        emit _ResolveChallenge(_listingHash, challengeId, msg.sender);\n    }\n\n    // claim rewards for a vote\n    function claimRewards(uint256 challengeId) public {\n        // check if challenge is resolved\n        require(\n            challenges[challengeId].resolved == true,\n            \"Challenge is not resolved.\"\n        );\n\n        Poll storage poll = polls[challengeId];\n        Vote storage voteInstance = poll.votes[msg.sender];\n\n        // check if vote reward is already claimed\n        require(\n            voteInstance.claimed == false,\n            \"Vote reward is already claimed.\"\n        );\n\n        // if winning party, calculate reward and transfer\n        if (\n            (poll.passed && voteInstance.value) ||\n            (!poll.passed && !voteInstance.value)\n        ) {\n            uint256 reward = (\n                challenges[challengeId].rewardPool.div(\n                    challenges[challengeId].totalTokens\n                )\n            ).mul(voteInstance.stake);\n            uint256 total = voteInstance.stake.add(reward);\n            require(\n                token.transfer(msg.sender, total),\n                \"Voting reward transfer failed.\"\n            );\n            emit _RewardClaimed(challengeId, total, msg.sender);\n        }\n\n        voteInstance.claimed = true;\n    }\n}\n",
  "sourcePath": "/Users/giocasu/Documents/radix/trublo/simple-tcr/contracts/tcr.sol",
  "compiler": {
    "name": "solc",
    "version": "0.5.8+commit.23d335f2.Emscripten.clang"
  },
  "schemaVersion": "3.4.7",
  "updatedAt": "2022-05-31T15:50:11.866Z",
  "networkType": "ethereum",
  "devdoc": {
    "methods": {}
  },
  "userdoc": {
    "methods": {}
  }
}